{
  "address": "0xe249c50DfBd4c3eCcf7E00C9C068B8Aa32BB9a22",
  "abi": [
    {
      "inputs": [
        {
          "internalType": "contract IForwarderRegistry",
          "name": "forwarderRegistry",
          "type": "address"
        },
        {
          "internalType": "address",
          "name": "childChainManager",
          "type": "address"
        }
      ],
      "stateMutability": "nonpayable",
      "type": "constructor"
    },
    {
      "anonymous": false,
      "inputs": [
        {
          "indexed": true,
          "internalType": "address",
          "name": "_owner",
          "type": "address"
        },
        {
          "indexed": true,
          "internalType": "address",
          "name": "_spender",
          "type": "address"
        },
        {
          "indexed": false,
          "internalType": "uint256",
          "name": "_value",
          "type": "uint256"
        }
      ],
      "name": "Approval",
      "type": "event"
    },
    {
      "anonymous": false,
      "inputs": [
        {
          "indexed": true,
          "internalType": "address",
          "name": "account",
          "type": "address"
        }
      ],
      "name": "MinterAdded",
      "type": "event"
    },
    {
      "anonymous": false,
      "inputs": [
        {
          "indexed": true,
          "internalType": "address",
          "name": "account",
          "type": "address"
        }
      ],
      "name": "MinterRemoved",
      "type": "event"
    },
    {
      "anonymous": false,
      "inputs": [
        {
          "indexed": true,
          "internalType": "address",
          "name": "previousOwner",
          "type": "address"
        },
        {
          "indexed": true,
          "internalType": "address",
          "name": "newOwner",
          "type": "address"
        }
      ],
      "name": "OwnershipTransferred",
      "type": "event"
    },
    {
      "anonymous": false,
      "inputs": [
        {
          "indexed": true,
          "internalType": "address",
          "name": "_from",
          "type": "address"
        },
        {
          "indexed": true,
          "internalType": "address",
          "name": "_to",
          "type": "address"
        },
        {
          "indexed": false,
          "internalType": "uint256",
          "name": "_value",
          "type": "uint256"
        }
      ],
      "name": "Transfer",
      "type": "event"
    },
    {
      "anonymous": false,
      "inputs": [
        {
          "indexed": false,
          "internalType": "address",
          "name": "account",
          "type": "address"
        },
        {
          "indexed": false,
          "internalType": "uint256",
          "name": "value",
          "type": "uint256"
        }
      ],
      "name": "Withdrawn",
      "type": "event"
    },
    {
      "inputs": [],
      "name": "DOMAIN_SEPARATOR",
      "outputs": [
        {
          "internalType": "bytes32",
          "name": "",
          "type": "bytes32"
        }
      ],
      "stateMutability": "view",
      "type": "function"
    },
    {
      "inputs": [
        {
          "internalType": "address",
          "name": "account",
          "type": "address"
        }
      ],
      "name": "addMinter",
      "outputs": [],
      "stateMutability": "nonpayable",
      "type": "function"
    },
    {
      "inputs": [
        {
          "internalType": "address",
          "name": "owner",
          "type": "address"
        },
        {
          "internalType": "address",
          "name": "spender",
          "type": "address"
        }
      ],
      "name": "allowance",
      "outputs": [
        {
          "internalType": "uint256",
          "name": "",
          "type": "uint256"
        }
      ],
      "stateMutability": "view",
      "type": "function"
    },
    {
      "inputs": [
        {
          "internalType": "address",
          "name": "spender",
          "type": "address"
        },
        {
          "internalType": "uint256",
          "name": "value",
          "type": "uint256"
        }
      ],
      "name": "approve",
      "outputs": [
        {
          "internalType": "bool",
          "name": "",
          "type": "bool"
        }
      ],
      "stateMutability": "nonpayable",
      "type": "function"
    },
    {
      "inputs": [
        {
          "internalType": "address",
          "name": "account",
          "type": "address"
        }
      ],
      "name": "balanceOf",
      "outputs": [
        {
          "internalType": "uint256",
          "name": "",
          "type": "uint256"
        }
      ],
      "stateMutability": "view",
      "type": "function"
    },
    {
      "inputs": [
        {
          "internalType": "address[]",
          "name": "owners",
          "type": "address[]"
        },
        {
          "internalType": "uint256[]",
          "name": "values",
          "type": "uint256[]"
        }
      ],
      "name": "batchBurnFrom",
      "outputs": [
        {
          "internalType": "bool",
          "name": "",
          "type": "bool"
        }
      ],
      "stateMutability": "nonpayable",
      "type": "function"
    },
    {
      "inputs": [
        {
          "internalType": "address[]",
          "name": "recipients",
          "type": "address[]"
        },
        {
          "internalType": "uint256[]",
          "name": "values",
          "type": "uint256[]"
        }
      ],
      "name": "batchMint",
      "outputs": [],
      "stateMutability": "nonpayable",
      "type": "function"
    },
    {
      "inputs": [
        {
          "internalType": "address[]",
          "name": "recipients",
          "type": "address[]"
        },
        {
          "internalType": "uint256[]",
          "name": "values",
          "type": "uint256[]"
        }
      ],
      "name": "batchTransfer",
      "outputs": [
        {
          "internalType": "bool",
          "name": "",
          "type": "bool"
        }
      ],
      "stateMutability": "nonpayable",
      "type": "function"
    },
    {
      "inputs": [
        {
          "internalType": "address",
          "name": "from",
          "type": "address"
        },
        {
          "internalType": "address[]",
          "name": "recipients",
          "type": "address[]"
        },
        {
          "internalType": "uint256[]",
          "name": "values",
          "type": "uint256[]"
        }
      ],
      "name": "batchTransferFrom",
      "outputs": [
        {
          "internalType": "bool",
          "name": "",
          "type": "bool"
        }
      ],
      "stateMutability": "nonpayable",
      "type": "function"
    },
    {
      "inputs": [
        {
          "internalType": "uint256",
          "name": "amount",
          "type": "uint256"
        }
      ],
      "name": "burn",
      "outputs": [
        {
          "internalType": "bool",
          "name": "",
          "type": "bool"
        }
      ],
      "stateMutability": "nonpayable",
      "type": "function"
    },
    {
      "inputs": [
        {
          "internalType": "address",
          "name": "from",
          "type": "address"
        },
        {
          "internalType": "uint256",
          "name": "value",
          "type": "uint256"
        }
      ],
      "name": "burnFrom",
      "outputs": [
        {
          "internalType": "bool",
          "name": "",
          "type": "bool"
        }
      ],
      "stateMutability": "nonpayable",
      "type": "function"
    },
    {
      "inputs": [],
      "name": "childChainManager",
      "outputs": [
        {
          "internalType": "address",
          "name": "",
          "type": "address"
        }
      ],
      "stateMutability": "view",
      "type": "function"
    },
    {
      "inputs": [],
      "name": "decimals",
      "outputs": [
        {
          "internalType": "uint8",
          "name": "",
          "type": "uint8"
        }
      ],
      "stateMutability": "view",
      "type": "function"
    },
    {
      "inputs": [
        {
          "internalType": "address",
          "name": "spender",
          "type": "address"
        },
        {
          "internalType": "uint256",
          "name": "subtractedValue",
          "type": "uint256"
        }
      ],
      "name": "decreaseAllowance",
      "outputs": [
        {
          "internalType": "bool",
          "name": "",
          "type": "bool"
        }
      ],
      "stateMutability": "nonpayable",
      "type": "function"
    },
    {
      "inputs": [],
      "name": "deploymentChainId",
      "outputs": [
        {
          "internalType": "uint256",
          "name": "",
          "type": "uint256"
        }
      ],
      "stateMutability": "view",
      "type": "function"
    },
    {
      "inputs": [
        {
          "internalType": "address",
          "name": "user",
          "type": "address"
        },
        {
          "internalType": "bytes",
          "name": "depositData",
          "type": "bytes"
        }
      ],
      "name": "deposit",
      "outputs": [],
      "stateMutability": "nonpayable",
      "type": "function"
    },
    {
      "inputs": [
        {
          "internalType": "address",
          "name": "spender",
          "type": "address"
        },
        {
          "internalType": "uint256",
          "name": "addedValue",
          "type": "uint256"
        }
      ],
      "name": "increaseAllowance",
      "outputs": [
        {
          "internalType": "bool",
          "name": "",
          "type": "bool"
        }
      ],
      "stateMutability": "nonpayable",
      "type": "function"
    },
    {
      "inputs": [
        {
          "internalType": "address",
          "name": "",
          "type": "address"
        }
      ],
      "name": "isMinter",
      "outputs": [
        {
          "internalType": "bool",
          "name": "",
          "type": "bool"
        }
      ],
      "stateMutability": "view",
      "type": "function"
    },
    {
      "inputs": [
        {
          "internalType": "address",
          "name": "forwarder",
          "type": "address"
        }
      ],
      "name": "isTrustedForwarder",
      "outputs": [
        {
          "internalType": "bool",
          "name": "",
          "type": "bool"
        }
      ],
      "stateMutability": "view",
      "type": "function"
    },
    {
      "inputs": [
        {
          "internalType": "address",
          "name": "to",
          "type": "address"
        },
        {
          "internalType": "uint256",
          "name": "value",
          "type": "uint256"
        }
      ],
      "name": "mint",
      "outputs": [],
      "stateMutability": "nonpayable",
      "type": "function"
    },
    {
      "inputs": [],
      "name": "name",
      "outputs": [
        {
          "internalType": "string",
          "name": "",
          "type": "string"
        }
      ],
      "stateMutability": "view",
      "type": "function"
    },
    {
      "inputs": [
        {
          "internalType": "address",
          "name": "",
          "type": "address"
        }
      ],
      "name": "nonces",
      "outputs": [
        {
          "internalType": "uint256",
          "name": "",
          "type": "uint256"
        }
      ],
      "stateMutability": "view",
      "type": "function"
    },
    {
      "inputs": [
        {
          "internalType": "address",
          "name": "",
          "type": "address"
        },
        {
          "internalType": "address",
          "name": "from",
          "type": "address"
        },
        {
          "internalType": "uint256",
          "name": "amount",
          "type": "uint256"
        },
        {
          "internalType": "bytes",
          "name": "",
          "type": "bytes"
        }
      ],
      "name": "onERC20Received",
      "outputs": [
        {
          "internalType": "bytes4",
          "name": "",
          "type": "bytes4"
        }
      ],
      "stateMutability": "nonpayable",
      "type": "function"
    },
    {
      "inputs": [],
      "name": "owner",
      "outputs": [
        {
          "internalType": "address",
          "name": "",
          "type": "address"
        }
      ],
      "stateMutability": "view",
      "type": "function"
    },
    {
      "inputs": [
        {
          "internalType": "address",
          "name": "owner",
          "type": "address"
        },
        {
          "internalType": "address",
          "name": "spender",
          "type": "address"
        },
        {
          "internalType": "uint256",
          "name": "value",
          "type": "uint256"
        },
        {
          "internalType": "uint256",
          "name": "deadline",
          "type": "uint256"
        },
        {
          "internalType": "uint8",
          "name": "v",
          "type": "uint8"
        },
        {
          "internalType": "bytes32",
          "name": "r",
          "type": "bytes32"
        },
        {
          "internalType": "bytes32",
          "name": "s",
          "type": "bytes32"
        }
      ],
      "name": "permit",
      "outputs": [],
      "stateMutability": "nonpayable",
      "type": "function"
    },
    {
      "inputs": [
        {
          "internalType": "address[]",
          "name": "accounts",
          "type": "address[]"
        },
        {
          "internalType": "address[]",
          "name": "tokens",
          "type": "address[]"
        },
        {
          "internalType": "uint256[]",
          "name": "amounts",
          "type": "uint256[]"
        }
      ],
      "name": "recoverERC20s",
      "outputs": [],
      "stateMutability": "nonpayable",
      "type": "function"
    },
    {
      "inputs": [
        {
          "internalType": "address[]",
          "name": "accounts",
          "type": "address[]"
        },
        {
          "internalType": "address[]",
          "name": "contracts",
          "type": "address[]"
        },
        {
          "internalType": "uint256[]",
          "name": "tokenIds",
          "type": "uint256[]"
        }
      ],
      "name": "recoverERC721s",
      "outputs": [],
      "stateMutability": "nonpayable",
      "type": "function"
    },
    {
      "inputs": [],
      "name": "renounceMinter",
      "outputs": [],
      "stateMutability": "nonpayable",
      "type": "function"
    },
    {
      "inputs": [
        {
          "internalType": "address",
          "name": "to",
          "type": "address"
        },
        {
          "internalType": "uint256",
          "name": "amount",
          "type": "uint256"
        },
        {
          "internalType": "bytes",
          "name": "data",
          "type": "bytes"
        }
      ],
      "name": "safeTransfer",
      "outputs": [
        {
          "internalType": "bool",
          "name": "",
          "type": "bool"
        }
      ],
      "stateMutability": "nonpayable",
      "type": "function"
    },
    {
      "inputs": [
        {
          "internalType": "address",
          "name": "from",
          "type": "address"
        },
        {
          "internalType": "address",
          "name": "to",
          "type": "address"
        },
        {
          "internalType": "uint256",
          "name": "amount",
          "type": "uint256"
        },
        {
          "internalType": "bytes",
          "name": "data",
          "type": "bytes"
        }
      ],
      "name": "safeTransferFrom",
      "outputs": [
        {
          "internalType": "bool",
          "name": "",
          "type": "bool"
        }
      ],
      "stateMutability": "nonpayable",
      "type": "function"
    },
    {
      "inputs": [
        {
          "internalType": "string",
          "name": "tokenURI_",
          "type": "string"
        }
      ],
      "name": "setTokenURI",
      "outputs": [],
      "stateMutability": "nonpayable",
      "type": "function"
    },
    {
      "inputs": [
        {
          "internalType": "bytes4",
          "name": "interfaceId",
          "type": "bytes4"
        }
      ],
      "name": "supportsInterface",
      "outputs": [
        {
          "internalType": "bool",
          "name": "",
          "type": "bool"
        }
      ],
      "stateMutability": "view",
      "type": "function"
    },
    {
      "inputs": [],
      "name": "symbol",
      "outputs": [
        {
          "internalType": "string",
          "name": "",
          "type": "string"
        }
      ],
      "stateMutability": "view",
      "type": "function"
    },
    {
      "inputs": [],
      "name": "tokenURI",
      "outputs": [
        {
          "internalType": "string",
          "name": "",
          "type": "string"
        }
      ],
      "stateMutability": "view",
      "type": "function"
    },
    {
      "inputs": [],
      "name": "totalSupply",
      "outputs": [
        {
          "internalType": "uint256",
          "name": "",
          "type": "uint256"
        }
      ],
      "stateMutability": "view",
      "type": "function"
    },
    {
      "inputs": [
        {
          "internalType": "address",
          "name": "to",
          "type": "address"
        },
        {
          "internalType": "uint256",
          "name": "value",
          "type": "uint256"
        }
      ],
      "name": "transfer",
      "outputs": [
        {
          "internalType": "bool",
          "name": "",
          "type": "bool"
        }
      ],
      "stateMutability": "nonpayable",
      "type": "function"
    },
    {
      "inputs": [
        {
          "internalType": "address",
          "name": "from",
          "type": "address"
        },
        {
          "internalType": "address",
          "name": "to",
          "type": "address"
        },
        {
          "internalType": "uint256",
          "name": "value",
          "type": "uint256"
        }
      ],
      "name": "transferFrom",
      "outputs": [
        {
          "internalType": "bool",
          "name": "",
          "type": "bool"
        }
      ],
      "stateMutability": "nonpayable",
      "type": "function"
    },
    {
      "inputs": [
        {
          "internalType": "address",
          "name": "newOwner",
          "type": "address"
        }
      ],
      "name": "transferOwnership",
      "outputs": [],
      "stateMutability": "nonpayable",
      "type": "function"
    },
    {
      "inputs": [
        {
          "internalType": "uint256",
          "name": "amount",
          "type": "uint256"
        }
      ],
      "name": "withdraw",
      "outputs": [],
      "stateMutability": "nonpayable",
      "type": "function"
    }
  ],
  "transactionHash": "0x86135e89e4ece6c4072acad5b9601af24df9d4bc106d4b0cb14537d23c9aeddd",
  "args": [
    "0x71beE13E92e64701b78f059801A70857E4683ACd",
    "0xb991E39a401136348Dee93C75143B159FabF483f"
  ],
  "numDeployments": 1,
  "solcInputHash": "239255c3fa1dcf6d06fe6f2368418ca7",
  "bytecode": "0x6101206040523480156200001257600080fd5b5060405162003cda38038062003cda833981810160405260408110156200003857600080fd5b508051602091820151604080518082018252601581527f52455656204d6f746f7273706f727420536861726400000000000000000000008186015281518083018352600481526314d2149160e21b95810195909552600080546001600160a01b03191633908117825592519495939492939192601291869182918691869186918491849184918f918e90819083907f8be0079c531659141344cd1fd0a4f28419497f9722a3daafe3b4186f6b6457e0908290a3506001600160601b0319606091821b811660a05291901b1660805282516200011b9060029060208601906200028b565b508151620001319060039060208501906200028b565b507fff0000000000000000000000000000000000000000000000000000000000000060f882901b16610100524660c08190526200016f8185620001b5565b60e0525050600880546001600160a01b0319166001600160a01b03979097169690961790955550620001ac97508896506200023f95505050505050565b50505062000337565b8051602091820120604080517f8b73c3c69bb8fe3d512ecc4cf759cc79239f7b179b0ffacaa9a75d522b39400f81850152808201929092527fc89efdaa54c0f20c7adf612882df0950f5a951637e0307cdcb4c672f298b8bc6606083015260808201939093523060a0808301919091528351808303909101815260c0909101909252815191012090565b6001600160a01b038116600081815260096020526040808220805460ff19166001179055517f6ae172837ea30b801fbfcdd4108aa1d5bf8ff775444fd70256b44e6bf3dfc3f69190a250565b828054600181600116156101000203166002900490600052602060002090601f016020900481019282620002c357600085556200030e565b82601f10620002de57805160ff19168380011785556200030e565b828001600101855582156200030e579182015b828111156200030e578251825591602001919060010190620002f1565b506200031c92915062000320565b5090565b5b808211156200031c576000815560010162000321565b60805160601c60a05160601c60c05160e0516101005160f81c61394662000394600039806110fa5250806111e252508061112152806121205250806117fe528061352f52508061183952806134f4528061358752506139466000f3fe608060405234801561001057600080fd5b50600436106102ad5760003560e01c806379cc67901161017b578063b88d4fde116100d8578063d505accf1161008c578063e0df5b6f11610071578063e0df5b6f14610e0f578063eb79554914610e7f578063f2fde38b14610f04576102ad565b8063d505accf14610d90578063dd62ed3e14610de1576102ad565b8063c8291d84116100bd578063c8291d8414610d00578063cd0d009614610d08578063cf2c52cb14610d10576102ad565b8063b88d4fde14610b5c578063c3666c3614610bec576102ad565b8063983b2d561161012f578063a457c2d711610114578063a457c2d714610ade578063a9059cbb14610b0a578063aa271e1a14610b36576102ad565b8063983b2d5614610ab05780639865027514610ad6576102ad565b806388d695b21161016057806388d695b2146109c25780638da5cb5b14610a8457806395d89b4114610aa8576102ad565b806379cc6790146109705780637ecebe001461099c576102ad565b806339509351116102295780634fc35859116101dd57806368573107116101c2578063685731071461070f57806370a082311461083657806373c8a9581461085c576102ad565b80634fc358591461063c578063572b6c05146106e9576102ad565b806340c10f191161020e57806340c10f191461052157806342966c681461054d5780634885b2541461056a576102ad565b806339509351146104ed5780633c130d9014610519576102ad565b80631b9a7529116102805780632e1a7d4d116102655780632e1a7d4d146104a8578063313ce567146104c75780633644e515146104e5576102ad565b80631b9a7529146103b057806323b872dd14610472576102ad565b806301ffc9a7146102b257806306fdde03146102ed578063095ea7b31461036a57806318160ddd14610396575b600080fd5b6102d9600480360360208110156102c857600080fd5b50356001600160e01b031916610f2a565b604080519115158252519081900360200190f35b6102f5610f4a565b6040805160208082528351818301528351919283929083019185019080838360005b8381101561032f578181015183820152602001610317565b50505050905090810190601f16801561035c5780820380516001836020036101000a031916815260200191505b509250505060405180910390f35b6102d96004803603604081101561038057600080fd5b506001600160a01b038135169060200135610fde565b61039e610ffb565b60408051918252519081900360200190f35b6102d9600480360360408110156103c657600080fd5b8101906020810181356401000000008111156103e157600080fd5b8201836020820111156103f357600080fd5b8035906020019184602083028401116401000000008311171561041557600080fd5b91939092909160208101903564010000000081111561043357600080fd5b82018360208201111561044557600080fd5b8035906020019184602083028401116401000000008311171561046757600080fd5b509092509050611001565b6102d96004803603606081101561048857600080fd5b506001600160a01b0381358116916020810135909116906040013561107b565b6104c5600480360360208110156104be57600080fd5b503561109a565b005b6104cf6110f8565b6040805160ff9092168252519081900360200190f35b61039e61111c565b6102d96004803603604081101561050357600080fd5b506001600160a01b038135169060200135611208565b6102f5611376565b6104c56004803603604081101561053757600080fd5b506001600160a01b0381351690602001356113d7565b6102d96004803603602081101561056357600080fd5b50356113f5565b6102d96004803603606081101561058057600080fd5b6001600160a01b0382351691908101906040810160208201356401000000008111156105ab57600080fd5b8201836020820111156105bd57600080fd5b803590602001918460208302840111640100000000831117156105df57600080fd5b9193909290916020810190356401000000008111156105fd57600080fd5b82018360208201111561060f57600080fd5b8035906020019184602083028401116401000000008311171561063157600080fd5b509092509050611410565b6106cc6004803603608081101561065257600080fd5b6001600160a01b0382358116926020810135909116916040820135919081019060808101606082013564010000000081111561068d57600080fd5b82018360208201111561069f57600080fd5b803590602001918460018302840111640100000000831117156106c157600080fd5b509092509050611744565b604080516001600160e01b03199092168252519081900360200190f35b6102d9600480360360208110156106ff57600080fd5b50356001600160a01b03166117fa565b6104c56004803603604081101561072557600080fd5b81019060208101813564010000000081111561074057600080fd5b82018360208201111561075257600080fd5b8035906020019184602083028401116401000000008311171561077457600080fd5b91908080602002602001604051908101604052809392919081815260200183836020028082843760009201919091525092959493602081019350359150506401000000008111156107c457600080fd5b8201836020820111156107d657600080fd5b803590602001918460208302840111640100000000831117156107f857600080fd5b919080806020026020016040519081016040528093929190818152602001838360200280828437600092019190915250929550611873945050505050565b61039e6004803603602081101561084c57600080fd5b50356001600160a01b0316611888565b6104c56004803603606081101561087257600080fd5b81019060208101813564010000000081111561088d57600080fd5b82018360208201111561089f57600080fd5b803590602001918460208302840111640100000000831117156108c157600080fd5b9193909290916020810190356401000000008111156108df57600080fd5b8201836020820111156108f157600080fd5b8035906020019184602083028401116401000000008311171561091357600080fd5b91939092909160208101903564010000000081111561093157600080fd5b82018360208201111561094357600080fd5b8035906020019184602083028401116401000000008311171561096557600080fd5b5090925090506118a3565b6102d96004803603604081101561098657600080fd5b506001600160a01b038135169060200135611995565b61039e600480360360208110156109b257600080fd5b50356001600160a01b03166119a1565b6102d9600480360360408110156109d857600080fd5b8101906020810181356401000000008111156109f357600080fd5b820183602082011115610a0557600080fd5b80359060200191846020830284011164010000000083111715610a2757600080fd5b919390929091602081019035640100000000811115610a4557600080fd5b820183602082011115610a5757600080fd5b80359060200191846020830284011164010000000083111715610a7957600080fd5b5090925090506119b3565b610a8c611cc2565b604080516001600160a01b039092168252519081900360200190f35b6102f5611cd1565b6104c560048036036020811015610ac657600080fd5b50356001600160a01b0316611d32565b6104c5611d49565b6102d960048036036040811015610af457600080fd5b506001600160a01b038135169060200135611da7565b6102d960048036036040811015610b2057600080fd5b506001600160a01b038135169060200135611e16565b6102d960048036036020811015610b4c57600080fd5b50356001600160a01b0316611e2a565b6102d960048036036080811015610b7257600080fd5b6001600160a01b03823581169260208101359091169160408201359190810190608081016060820135640100000000811115610bad57600080fd5b820183602082011115610bbf57600080fd5b80359060200191846001830284011164010000000083111715610be157600080fd5b509092509050611e3f565b6104c560048036036060811015610c0257600080fd5b810190602081018135640100000000811115610c1d57600080fd5b820183602082011115610c2f57600080fd5b80359060200191846020830284011164010000000083111715610c5157600080fd5b919390929091602081019035640100000000811115610c6f57600080fd5b820183602082011115610c8157600080fd5b80359060200191846020830284011164010000000083111715610ca357600080fd5b919390929091602081019035640100000000811115610cc157600080fd5b820183602082011115610cd357600080fd5b80359060200191846020830284011164010000000083111715610cf557600080fd5b509092509050611fc7565b610a8c61210f565b61039e61211e565b6104c560048036036040811015610d2657600080fd5b6001600160a01b038235169190810190604081016020820135640100000000811115610d5157600080fd5b820183602082011115610d6357600080fd5b80359060200191846001830284011164010000000083111715610d8557600080fd5b509092509050612142565b6104c5600480360360e0811015610da657600080fd5b506001600160a01b03813581169160208101359091169060408101359060608101359060ff6080820135169060a08101359060c00135612178565b61039e60048036036040811015610df757600080fd5b506001600160a01b03813581169160200135166123f7565b6104c560048036036020811015610e2557600080fd5b810190602081018135640100000000811115610e4057600080fd5b820183602082011115610e5257600080fd5b80359060200191846001830284011164010000000083111715610e7457600080fd5b509092509050612422565b6102d960048036036060811015610e9557600080fd5b6001600160a01b0382351691602081013591810190606081016040820135640100000000811115610ec557600080fd5b820183602082011115610ed757600080fd5b80359060200191846001830284011164010000000083111715610ef957600080fd5b50909250905061243e565b6104c560048036036020811015610f1a57600080fd5b50356001600160a01b03166125c4565b6000610f3582612635565b80610f445750610f4482612673565b92915050565b60028054604080516020601f6000196101006001871615020190941685900493840181900481028201810190925282815260609390929091830182828015610fd35780601f10610fa857610100808354040283529160200191610fd3565b820191906000526020600020905b815481529060010190602001808311610fb657829003601f168201915b505050505090505b90565b6000610ff2610feb6126bf565b84846126ce565b50600192915050565b60075490565b60006110708585808060200260200160405190810160405280939291908181526020018383602002808284376000920191909152505060408051602080890282810182019093528882529093508892508791829185019084908082843760009201919091525061278b92505050565b506001949350505050565b60006110906110886126bf565b858585612947565b5060019392505050565b60006110a46126bf565b90506110b08183612976565b604080516001600160a01b03831681526020810184905281517f7084f5476618d8e60b11ef0d7d3f06914655adb8793e28ff7f018d4c76d505d5929181900390910190a15050565b7f000000000000000000000000000000000000000000000000000000000000000090565b6000467f000000000000000000000000000000000000000000000000000000000000000081146111e0576002805460408051602060018416156101000260001901909316849004601f81018490048402820184019092528181526111db938593919290918301828280156111d15780601f106111a6576101008083540402835291602001916111d1565b820191906000526020600020905b8154815290600101906020018083116111b457829003601f168201915b50505050506129b0565b611202565b7f00000000000000000000000000000000000000000000000000000000000000005b91505090565b60006001600160a01b038316611265576040805162461bcd60e51b815260206004820152601b60248201527f45524332303a207a65726f2061646472657373207370656e6465720000000000604482015290519081900360640190fd5b600061126f6126bf565b6001600160a01b038082166000908152600660209081526040808320938916835292905220549091508315611320578084018181116112f5576040805162461bcd60e51b815260206004820152601960248201527f45524332303a20616c6c6f77616e6365206f766572666c6f7700000000000000604482015290519081900360640190fd5b6001600160a01b038084166000908152600660209081526040808320938a1683529290522081905590505b846001600160a01b0316826001600160a01b03167f8c5be1e5ebec7d5bd14f71427d1e84f3dd0314c0f7b2291e5b200ac8c7c3b925836040518082815260200191505060405180910390a3506001949350505050565b60048054604080516020601f6002600019610100600188161502019095169490940493840181900481028201810190925282815260609390929091830182828015610fd35780601f10610fa857610100808354040283529160200191610fd3565b6113e76113e26126bf565b612a3a565b6113f18282612aa7565b5050565b60006114086114026126bf565b83612bca565b506001919050565b600083828114611467576040805162461bcd60e51b815260206004820152601a60248201527f45524332303a20696e636f6e73697374656e7420617272617973000000000000604482015290519081900360640190fd5b6001600160a01b0387166000908152600560205260408120549080805b8481146116795760008a8a8381811061149957fe5b905060200201356001600160a01b0316905060006001600160a01b0316816001600160a01b03161415611513576040805162461bcd60e51b815260206004820152601660248201527f45524332303a20746f207a65726f206164647265737300000000000000000000604482015290519081900360640190fd5b600089898481811061152157fe5b9050602002013590508060001461162457848101858111611589576040805162461bcd60e51b815260206004820152601660248201527f45524332303a2076616c756573206f766572666c6f7700000000000000000000604482015290519081900360640190fd5b809550826001600160a01b03168e6001600160a01b0316146115c8576001600160a01b0383166000908152600560205260409020805483019055611622565b8682111561161d576040805162461bcd60e51b815260206004820152601b60248201527f45524332303a20696e73756666696369656e742062616c616e63650000000000604482015290519081900360640190fd5b938101935b505b816001600160a01b03168d6001600160a01b03167fddf252ad1be2c89b69c2b068fc378daa952ba7f163c4a11628f55a4df523b3ef836040518082815260200191505060405180910390a35050600101611484565b5081158015906116895750808214155b15611703578183038381106116e5576040805162461bcd60e51b815260206004820152601b60248201527f45524332303a20696e73756666696369656e742062616c616e63650000000000604482015290519081900360640190fd5b6001600160a01b038b16600090815260056020526040902090820190555b600061170d6126bf565b9050806001600160a01b03168b6001600160a01b031614611733576117338b8285612ca9565b5060019a9950505050505050505050565b600033301461179a576040805162461bcd60e51b815260206004820152601860248201527f4368696c6445524332303a2077726f6e672073656e6465720000000000000000604482015290519081900360640190fd5b6117a43085612bca565b604080516001600160a01b03871681526020810186905281517f7084f5476618d8e60b11ef0d7d3f06914655adb8793e28ff7f018d4c76d505d5929181900390910190a150634fc3585960e01b95945050505050565b60007f00000000000000000000000000000000000000000000000000000000000000006001600160a01b0316826001600160a01b03161480610f4457507f00000000000000000000000000000000000000000000000000000000000000006001600160a01b0316826001600160a01b0316149050919050565b61187e6113e26126bf565b6113f18282612db8565b6001600160a01b031660009081526005602052604090205490565b6118b36118ae6126bf565b612fe8565b8483811480156118c257508082145b611913576040805162461bcd60e51b815260206004820152601a60248201527f5265636f763a20696e636f6e73697374656e7420617272617973000000000000604482015290519081900360640190fd5b60005b81811461198b5761198388888381811061192c57fe5b905060200201356001600160a01b031685858481811061194857fe5b9050602002013588888581811061195b57fe5b905060200201356001600160a01b03166001600160a01b03166130ac9092919063ffffffff16565b600101611916565b5050505050505050565b6000610ff28383612976565b60016020526000908152604090205481565b600083828114611a0a576040805162461bcd60e51b815260206004820152601a60248201527f45524332303a20696e636f6e73697374656e7420617272617973000000000000604482015290519081900360640190fd5b6000611a146126bf565b6001600160a01b03811660009081526005602052604081205491925080805b858114611c285760008b8b83818110611a4857fe5b905060200201356001600160a01b0316905060006001600160a01b0316816001600160a01b03161415611ac2576040805162461bcd60e51b815260206004820152601660248201527f45524332303a20746f207a65726f206164647265737300000000000000000000604482015290519081900360640190fd5b60008a8a84818110611ad057fe5b90506020020135905080600014611bd357848101858111611b38576040805162461bcd60e51b815260206004820152601660248201527f45524332303a2076616c756573206f766572666c6f7700000000000000000000604482015290519081900360640190fd5b809550826001600160a01b0316886001600160a01b031614611b77576001600160a01b0383166000908152600560205260409020805483019055611bd1565b86821115611bcc576040805162461bcd60e51b815260206004820152601b60248201527f45524332303a20696e73756666696369656e742062616c616e63650000000000604482015290519081900360640190fd5b938101935b505b816001600160a01b0316876001600160a01b03167fddf252ad1be2c89b69c2b068fc378daa952ba7f163c4a11628f55a4df523b3ef836040518082815260200191505060405180910390a35050600101611a33565b508115801590611c385750808214155b15611cb257818303838110611c94576040805162461bcd60e51b815260206004820152601b60248201527f45524332303a20696e73756666696369656e742062616c616e63650000000000604482015290519081900360640190fd5b6001600160a01b038516600090815260056020526040902090820190555b5060019998505050505050505050565b6000546001600160a01b031690565b60038054604080516020601f6002600019610100600188161502019095169490940493840181900481028201810190925282815260609390929091830182828015610fd35780601f10610fa857610100808354040283529160200191610fd3565b611d3d6118ae6126bf565b611d468161312c565b50565b6000611d536126bf565b9050611d5e81612a3a565b6001600160a01b038116600081815260096020526040808220805460ff19169055517fe94479a9f7e1952cc78f2d6baab678adc1b772d936c6583def489e524cb666929190a250565b60006001600160a01b038316611e04576040805162461bcd60e51b815260206004820152601b60248201527f45524332303a207a65726f2061646472657373207370656e6465720000000000604482015290519081900360640190fd5b610ff2611e0f6126bf565b8484612ca9565b6000610ff2611e236126bf565b8484613178565b60096020526000908152604090205460ff1681565b600080611e4a6126bf565b9050611e5881888888612947565b611e6a866001600160a01b03166132df565b15611fba57634fc3585960e01b7bffffffffffffffffffffffffffffffffffffffffffffffffffffffff1916866001600160a01b0316634fc35859838a8989896040518663ffffffff1660e01b815260040180866001600160a01b03168152602001856001600160a01b03168152602001848152602001806020018281038252848482818152602001925080828437600081840152601f19601f8201169050808301925050509650505050505050602060405180830381600087803b158015611f3257600080fd5b505af1158015611f46573d6000803e3d6000fd5b505050506040513d6020811015611f5c57600080fd5b50516001600160e01b03191614611fba576040805162461bcd60e51b815260206004820152601760248201527f45524332303a207472616e736665722072656675736564000000000000000000604482015290519081900360640190fd5b5060019695505050505050565b611fd26118ae6126bf565b848381148015611fe157508082145b612032576040805162461bcd60e51b815260206004820152601a60248201527f5265636f763a20696e636f6e73697374656e7420617272617973000000000000604482015290519081900360640190fd5b60005b81811461198b5785858281811061204857fe5b905060200201356001600160a01b03166001600160a01b03166323b872dd308a8a8581811061207357fe5b905060200201356001600160a01b031687878681811061208f57fe5b905060200201356040518463ffffffff1660e01b815260040180846001600160a01b03168152602001836001600160a01b031681526020018281526020019350505050600060405180830381600087803b1580156120ec57600080fd5b505af1158015612100573d6000803e3d6000fd5b50505050806001019050612035565b6008546001600160a01b031681565b7f000000000000000000000000000000000000000000000000000000000000000081565b61215261214d6126bf565b6132e5565b60008282602081101561216457600080fd5b503590506121728482612aa7565b50505050565b6001600160a01b0387166121d3576040805162461bcd60e51b815260206004820152601960248201527f45524332303a207a65726f2061646472657373206f776e657200000000000000604482015290519081900360640190fd5b83421115612228576040805162461bcd60e51b815260206004820152601560248201527f45524332303a2065787069726564207065726d69740000000000000000000000604482015290519081900360640190fd5b6001600160a01b0380881660008181526001602081815260408084208054938401905580517f6e71edae12b1b97f4d1f60370fef10105fa2faae0126114a169c64845d6126c98184015280820195909552948b166060850152608084018a905260a084019190915260c08084018990528451808503909101815260e090930190935281519190920120906122ba61111c565b8260405160200180807f190100000000000000000000000000000000000000000000000000000000000081525060020183815260200182815260200192505050604051602081830303815290604052805190602001209050600060018287878760405160008152602001604052604051808581526020018460ff1681526020018381526020018281526020019450505050506020604051602081039080840390855afa15801561236e573d6000803e3d6000fd5b505050602060405103519050896001600160a01b0316816001600160a01b0316146123e0576040805162461bcd60e51b815260206004820152601560248201527f45524332303a20696e76616c6964207065726d69740000000000000000000000604482015290519081900360640190fd5b6123eb8a8a8a6126ce565b50505050505050505050565b6001600160a01b03918216600090815260066020908152604080832093909416825291909152205490565b61242d6118ae6126bf565b6124396004838361386f565b505050565b6000806124496126bf565b9050612456818787613178565b612468866001600160a01b03166132df565b156125b857634fc3585960e01b7bffffffffffffffffffffffffffffffffffffffffffffffffffffffff1916866001600160a01b0316634fc3585983848989896040518663ffffffff1660e01b815260040180866001600160a01b03168152602001856001600160a01b03168152602001848152602001806020018281038252848482818152602001925080828437600081840152601f19601f8201169050808301925050509650505050505050602060405180830381600087803b15801561253057600080fd5b505af1158015612544573d6000803e3d6000fd5b505050506040513d602081101561255a57600080fd5b50516001600160e01b031916146125b8576040805162461bcd60e51b815260206004820152601760248201527f45524332303a207472616e736665722072656675736564000000000000000000604482015290519081900360640190fd5b50600195945050505050565b6125cf6118ae6126bf565b600080547fffffffffffffffffffffffff0000000000000000000000000000000000000000166001600160a01b0383811691821780845560405192939116917f8be0079c531659141344cd1fd0a4f28419497f9722a3daafe3b4186f6b6457e09190a350565b60006001600160e01b031982167f20c07ed1000000000000000000000000000000000000000000000000000000001480610f445750610f4482613347565b60006001600160e01b031982167f01ffc9a7000000000000000000000000000000000000000000000000000000001480610f445750506001600160e01b031916634fc3585960e01b1490565b60006126c96134e4565b905090565b6001600160a01b038216612729576040805162461bcd60e51b815260206004820152601b60248201527f45524332303a207a65726f2061646472657373207370656e6465720000000000604482015290519081900360640190fd5b6001600160a01b03808416600081815260066020908152604080832094871680845294825291829020859055815185815291517f8c5be1e5ebec7d5bd14f71427d1e84f3dd0314c0f7b2291e5b200ac8c7c3b9259281900390910190a3505050565b8151815181146127e2576040805162461bcd60e51b815260206004820152601a60248201527f45524332303a20696e636f6e73697374656e7420617272617973000000000000604482015290519081900360640190fd5b60006127ec6126bf565b90506000805b83811461292f57600086828151811061280757fe5b60200260200101519050600086838151811061281f57fe5b60200260200101519050806000146128c0576001600160a01b0382166000908152600560205260409020548181038181106128a1576040805162461bcd60e51b815260206004820152601b60248201527f45524332303a20696e73756666696369656e742062616c616e63650000000000604482015290519081900360640190fd5b6001600160a01b03841660009081526005602052604090205550928301925b6040805182815290516000916001600160a01b038516917fddf252ad1be2c89b69c2b068fc378daa952ba7f163c4a11628f55a4df523b3ef9181900360200190a3846001600160a01b0316826001600160a01b03161461292557612925828683612ca9565b50506001016127f2565b508015612940576007805482900390555b5050505050565b612952838383613178565b836001600160a01b0316836001600160a01b03161461217257612172838583612ca9565b6129808282612bca565b600061298a6126bf565b9050806001600160a01b0316836001600160a01b03161461243957612439838284612ca9565b8051602091820120604080517f8b73c3c69bb8fe3d512ecc4cf759cc79239f7b179b0ffacaa9a75d522b39400f81850152808201929092527fc89efdaa54c0f20c7adf612882df0950f5a951637e0307cdcb4c672f298b8bc6606083015260808201939093523060a0808301919091528351808303909101815260c0909101909252815191012090565b6001600160a01b03811660009081526009602052604090205460ff16611d46576040805162461bcd60e51b815260206004820152601860248201527f4d696e746572526f6c653a206e6f742061204d696e7465720000000000000000604482015290519081900360640190fd5b6001600160a01b038216612b02576040805162461bcd60e51b815260206004820152601360248201527f45524332303a207a65726f206164647265737300000000000000000000000000604482015290519081900360640190fd5b6007548115612b8457808201818111612b62576040805162461bcd60e51b815260206004820152601660248201527f45524332303a20737570706c79206f766572666c6f7700000000000000000000604482015290519081900360640190fd5b6007556001600160a01b03831660009081526005602052604090208054830190555b6040805183815290516001600160a01b038516916000917fddf252ad1be2c89b69c2b068fc378daa952ba7f163c4a11628f55a4df523b3ef9181900360200190a3505050565b8015612c64576001600160a01b038216600090815260056020526040902054818103818110612c40576040805162461bcd60e51b815260206004820152601b60248201527f45524332303a20696e73756666696369656e742062616c616e63650000000000604482015290519081900360640190fd5b6001600160a01b038416600090815260056020526040902055506007805482900390555b6040805182815290516000916001600160a01b038516917fddf252ad1be2c89b69c2b068fc378daa952ba7f163c4a11628f55a4df523b3ef9181900360200190a35050565b6001600160a01b038084166000908152600660209081526040808320938616835292905220546000198114801590612ce057508115155b15612d6757818103818110612d3c576040805162461bcd60e51b815260206004820152601d60248201527f45524332303a20696e73756666696369656e7420616c6c6f77616e6365000000604482015290519081900360640190fd5b6001600160a01b03808616600090815260066020908152604080832093881683529290522081905590505b826001600160a01b0316846001600160a01b03167f8c5be1e5ebec7d5bd14f71427d1e84f3dd0314c0f7b2291e5b200ac8c7c3b925836040518082815260200191505060405180910390a350505050565b815181518114612e0f576040805162461bcd60e51b815260206004820152601a60248201527f45524332303a20696e636f6e73697374656e7420617272617973000000000000604482015290519081900360640190fd5b6000805b828114612f7d576000858281518110612e2857fe5b6020026020010151905060006001600160a01b0316816001600160a01b03161415612e9a576040805162461bcd60e51b815260206004820152601360248201527f45524332303a207a65726f206164647265737300000000000000000000000000604482015290519081900360640190fd5b6000858381518110612ea857fe5b6020026020010151905080600014612f3257838101848111612f11576040805162461bcd60e51b815260206004820152601660248201527f45524332303a2076616c756573206f766572666c6f7700000000000000000000604482015290519081900360640190fd5b6001600160a01b038316600090815260056020526040902080548301905593505b6040805182815290516001600160a01b038416916000917fddf252ad1be2c89b69c2b068fc378daa952ba7f163c4a11628f55a4df523b3ef9181900360200190a35050600101612e13565b50801561217257600754818101818111612fde576040805162461bcd60e51b815260206004820152601660248201527f45524332303a20737570706c79206f766572666c6f7700000000000000000000604482015290519081900360640190fd5b6007555050505050565b306001600160a01b0316638da5cb5b6040518163ffffffff1660e01b815260040160206040518083038186803b15801561302157600080fd5b505afa158015613035573d6000803e3d6000fd5b505050506040513d602081101561304b57600080fd5b50516001600160a01b03828116911614611d46576040805162461bcd60e51b815260206004820152601660248201527f4f776e61626c653a206e6f7420746865206f776e657200000000000000000000604482015290519081900360640190fd5b604080516001600160a01b038416602482015260448082018490528251808303909101815260649091019091526020810180517bffffffffffffffffffffffffffffffffffffffffffffffffffffffff167fa9059cbb00000000000000000000000000000000000000000000000000000000179052612439908490613644565b6001600160a01b038116600081815260096020526040808220805460ff19166001179055517f6ae172837ea30b801fbfcdd4108aa1d5bf8ff775444fd70256b44e6bf3dfc3f69190a250565b6001600160a01b0382166131d3576040805162461bcd60e51b815260206004820152601660248201527f45524332303a20746f207a65726f206164647265737300000000000000000000604482015290519081900360640190fd5b801561328f576001600160a01b038316600090815260056020526040902054818103818110613249576040805162461bcd60e51b815260206004820152601b60248201527f45524332303a20696e73756666696369656e742062616c616e63650000000000604482015290519081900360640190fd5b836001600160a01b0316856001600160a01b03161461328c576001600160a01b038086166000908152600560205260408082208490559186168152208054840190555b50505b816001600160a01b0316836001600160a01b03167fddf252ad1be2c89b69c2b068fc378daa952ba7f163c4a11628f55a4df523b3ef836040518082815260200191505060405180910390a3505050565b3b151590565b6008546001600160a01b03828116911614611d46576040805162461bcd60e51b815260206004820152601a60248201527f4368696c6445524332303a206f6e6c79206465706f7369746f72000000000000604482015290519081900360640190fd5b60006001600160e01b031982167f01ffc9a70000000000000000000000000000000000000000000000000000000014806133aa57506001600160e01b031982167f36372b0700000000000000000000000000000000000000000000000000000000145b806133de57506001600160e01b031982167fa219a02500000000000000000000000000000000000000000000000000000000145b8061341257506001600160e01b031982167f3c130d9000000000000000000000000000000000000000000000000000000000145b8061344657506001600160e01b031982167f9d07518600000000000000000000000000000000000000000000000000000000145b8061347a57506001600160e01b031982167fc05327e600000000000000000000000000000000000000000000000000000000145b806134ae57506001600160e01b031982167f53f41a9700000000000000000000000000000000000000000000000000000000145b80610f445750506001600160e01b0319167f9d8ff7da000000000000000000000000000000000000000000000000000000001490565b600033816134f0613845565b90507f00000000000000000000000000000000000000000000000000000000000000006001600160a01b0316826001600160a01b0316148061356357507f00000000000000000000000000000000000000000000000000000000000000006001600160a01b0316826001600160a01b0316145b15613571579150610fdb9050565b6001600160a01b038216321480159061363057507f00000000000000000000000000000000000000000000000000000000000000006001600160a01b031663e60125d682846040518363ffffffff1660e01b815260040180836001600160a01b03168152602001826001600160a01b031681526020019250505060206040518083038186803b15801561360357600080fd5b505afa158015613617573d6000803e3d6000fd5b505050506040513d602081101561362d57600080fd5b50515b1561363e579150610fdb9050565b50905090565b816136576001600160a01b0382166132df565b6136a8576040805162461bcd60e51b815260206004820152601a60248201527f4552433230577261707065723a206e6f6e2d636f6e7472616374000000000000604482015290519081900360640190fd5b600080826001600160a01b0316846040518082805190602001908083835b6020831061370357805182527fffffffffffffffffffffffffffffffffffffffffffffffffffffffffffffffe090920191602091820191016136c6565b6001836020036101000a0380198251168184511680821785525050505050509050019150506000604051808303816000865af19150503d8060008114613765576040519150601f19603f3d011682016040523d82523d6000602084013e61376a565b606091505b509150915081156137e9578051156137e45780806020019051602081101561379157600080fd5b50516137e4576040805162461bcd60e51b815260206004820152601e60248201527f4552433230577261707065723a206f7065726174696f6e206661696c65640000604482015290519081900360640190fd5b612940565b805161383c576040805162461bcd60e51b815260206004820152601e60248201527f4552433230577261707065723a206f7065726174696f6e206661696c65640000604482015290519081900360640190fd5b80518082602001fd5b7fffffffffffffffffffffffffffffffffffffffffffffffffffffffffffffffec36013560601c90565b828054600181600116156101000203166002900490600052602060002090601f0160209004810192826138a557600085556138eb565b82601f106138be5782800160ff198235161785556138eb565b828001600101855582156138eb579182015b828111156138eb5782358255916020019190600101906138d0565b506138f79291506138fb565b5090565b5b808211156138f757600081556001016138fc56fea264697066735822122098a4d53aebf354418636c38fddaac73440d3dd4b37a8b38b7ab51fa6c1491a8f64736f6c63430007060033"
}