{
  "address": "0x0c927e43a204FA3A86E79e4b413300F9dBF05f97",
  "abi": [
    {
      "inputs": [
        {
          "internalType": "contract IERC20Mintable",
          "name": "shard_",
          "type": "address"
        }
      ],
      "stateMutability": "nonpayable",
      "type": "constructor"
    },
    {
      "inputs": [
        {
          "internalType": "address",
          "name": "recipient",
          "type": "address"
        },
        {
          "internalType": "bytes",
          "name": "claimData",
          "type": "bytes"
        },
        {
          "internalType": "uint256",
          "name": "nonce",
          "type": "uint256"
        }
      ],
      "name": "AlreadyClaimed",
      "type": "error"
    },
    {
      "inputs": [
        {
          "internalType": "address",
          "name": "recipient",
          "type": "address"
        },
        {
          "internalType": "bytes",
          "name": "claimData",
          "type": "bytes"
        },
        {
          "internalType": "uint256",
          "name": "nonce",
          "type": "uint256"
        }
      ],
      "name": "InvalidProof",
      "type": "error"
    },
    {
      "anonymous": false,
      "inputs": [
        {
          "indexed": false,
          "internalType": "bytes32",
          "name": "root",
          "type": "bytes32"
        }
      ],
      "name": "MerkleRootSet",
      "type": "event"
    },
    {
      "anonymous": false,
      "inputs": [
        {
          "indexed": true,
          "internalType": "address",
          "name": "previousOwner",
          "type": "address"
        },
        {
          "indexed": true,
          "internalType": "address",
          "name": "newOwner",
          "type": "address"
        }
      ],
      "name": "OwnershipTransferred",
      "type": "event"
    },
    {
      "anonymous": false,
      "inputs": [],
      "name": "Paused",
      "type": "event"
    },
    {
      "anonymous": false,
      "inputs": [
        {
          "indexed": true,
          "internalType": "bytes32",
          "name": "root",
          "type": "bytes32"
        },
        {
          "indexed": true,
          "internalType": "address",
          "name": "recipient",
          "type": "address"
        },
        {
          "indexed": false,
          "internalType": "bytes",
          "name": "claimData",
          "type": "bytes"
        },
        {
          "indexed": false,
          "internalType": "uint256",
          "name": "nonce",
          "type": "uint256"
        }
      ],
      "name": "PayoutClaimed",
      "type": "event"
    },
    {
      "anonymous": false,
      "inputs": [],
      "name": "Unpaused",
      "type": "event"
    },
    {
      "inputs": [
        {
          "internalType": "address",
          "name": "recipient",
          "type": "address"
        },
        {
          "internalType": "bytes",
          "name": "claimData",
          "type": "bytes"
        },
        {
          "internalType": "bytes32[]",
          "name": "proof",
          "type": "bytes32[]"
        }
      ],
      "name": "claimPayout",
      "outputs": [],
      "stateMutability": "nonpayable",
      "type": "function"
    },
    {
      "inputs": [
        {
          "internalType": "bytes32",
          "name": "",
          "type": "bytes32"
        }
      ],
      "name": "claimed",
      "outputs": [
        {
          "internalType": "bool",
          "name": "",
          "type": "bool"
        }
      ],
      "stateMutability": "view",
      "type": "function"
    },
    {
      "inputs": [],
      "name": "nonce",
      "outputs": [
        {
          "internalType": "uint256",
          "name": "",
          "type": "uint256"
        }
      ],
      "stateMutability": "view",
      "type": "function"
    },
    {
      "inputs": [],
      "name": "owner",
      "outputs": [
        {
          "internalType": "address",
          "name": "",
          "type": "address"
        }
      ],
      "stateMutability": "view",
      "type": "function"
    },
    {
      "inputs": [],
      "name": "pause",
      "outputs": [],
      "stateMutability": "nonpayable",
      "type": "function"
    },
    {
      "inputs": [],
      "name": "paused",
      "outputs": [
        {
          "internalType": "bool",
          "name": "",
          "type": "bool"
        }
      ],
      "stateMutability": "view",
      "type": "function"
    },
    {
      "inputs": [],
      "name": "root",
      "outputs": [
        {
          "internalType": "bytes32",
          "name": "",
          "type": "bytes32"
        }
      ],
      "stateMutability": "view",
      "type": "function"
    },
    {
      "inputs": [
        {
          "internalType": "bytes32",
          "name": "merkleRoot",
          "type": "bytes32"
        }
      ],
      "name": "setMerkleRoot",
      "outputs": [],
      "stateMutability": "nonpayable",
      "type": "function"
    },
    {
      "inputs": [],
      "name": "shard",
      "outputs": [
        {
          "internalType": "contract IERC20Mintable",
          "name": "",
          "type": "address"
        }
      ],
      "stateMutability": "view",
      "type": "function"
    },
    {
      "inputs": [
        {
          "internalType": "bytes4",
          "name": "interfaceId",
          "type": "bytes4"
        }
      ],
      "name": "supportsInterface",
      "outputs": [
        {
          "internalType": "bool",
          "name": "",
          "type": "bool"
        }
      ],
      "stateMutability": "view",
      "type": "function"
    },
    {
      "inputs": [
        {
          "internalType": "address",
          "name": "newOwner",
          "type": "address"
        }
      ],
      "name": "transferOwnership",
      "outputs": [],
      "stateMutability": "nonpayable",
      "type": "function"
    },
    {
      "inputs": [],
      "name": "unpause",
      "outputs": [],
      "stateMutability": "nonpayable",
      "type": "function"
    }
  ],
  "transactionHash": "0xdb73dfd323da77a12f4041a712bfb8b3343ca31694d70e646f8231fabf3e5a59",
  "args": [
    "0xeC492BC77D61C920303B38D8F260aa8Ed4dE321e"
  ],
  "numDeployments": 1,
  "solcInputHash": "385ebed2725fe50725955ae7f2f54dce",
  "bytecode": "0x60a06040523480156200001157600080fd5b50604051620010b7380380620010b7833981016040819052620000349162000257565b6001336200004d816200004662000077565b90620000ad565b5062000064816200005d62000128565b9062000158565b506001600160a01b0316608052620002ab565b600080620000a760017fc9ed16f33ab3a66c84bfd83099ccb2a8845871e2e1c1928f63797152f0fd54cd62000289565b92915050565b6001600160a01b03811615620001045781546001600160a01b0319166001600160a01b03821690811783556040516000907f8be0079c531659141344cd1fd0a4f28419497f9722a3daafe3b4186f6b6457e0908290a35b620001246307f5828d60e41b60016200011c62000197565b9190620001c7565b5050565b600080620000a760017f0186a05f63b1553398ad5ea3233c0ce68b8c9eecc47717f123c5c2b42fbd6d9f62000289565b80156200012457815460ff191660011782556040517f9e87fac88ff661f02d44f95383c817fece4bce600a3dab7a54406878b965e75290600090a15050565b600080620000a760017fca9d3e17f264b0f3984e2634e94adb37fa3e6a8103f06aeae6fa59e21c769f5e62000289565b600160e01b6001600160e01b0319831601620002295760405162461bcd60e51b815260206004820152601f60248201527f496e74657266616365446574656374696f6e3a2077726f6e672076616c756500604482015260640160405180910390fd5b6001600160e01b03199190911660009081526020929092526040909120805460ff1916911515919091179055565b6000602082840312156200026a57600080fd5b81516001600160a01b03811681146200028257600080fd5b9392505050565b81810381811115620000a757634e487b7160e01b600052601160045260246000fd5b608051610de9620002ce6000396000818161016001526108310152610de96000f3fe608060405234801561001057600080fd5b50600436106100d45760003560e01c8063996373c311610081578063ebf0c7171161005b578063ebf0c717146101bc578063edcdebcc146101c5578063f2fde38b146101d857600080fd5b8063996373c31461015b578063affed0e014610182578063cc3c0f061461019957600080fd5b80637cb64759116100b25780637cb64759146101135780638456cb59146101265780638da5cb5b1461012e57600080fd5b806301ffc9a7146100d95780633f4ba83a146101015780635c975abb1461010b575b600080fd5b6100ec6100e7366004610aa1565b6101eb565b60405190151581526020015b60405180910390f35b610109610205565b005b6100ec61022a565b610109610121366004610ae3565b610243565b6101096102a7565b6101366102c0565b60405173ffffffffffffffffffffffffffffffffffffffff90911681526020016100f8565b6101367f000000000000000000000000000000000000000000000000000000000000000081565b61018b60015481565b6040519081526020016100f8565b6100ec6101a7366004610ae3565b60026020526000908152604090205460ff1681565b61018b60005481565b6101096101d3366004610b25565b6102e7565b6101096101e6366004610c01565b610495565b60006101ff826101f96104ac565b906104da565b92915050565b610218335b6102126105b4565b906105e2565b610228610223610669565b610697565b565b600061023e610237610669565b5460ff1690565b905090565b61024c3361020a565b610257610223610669565b8060008190555060016000815461026d90610c4b565b909155506040518181527f42cbc405e4dbf1b691e85b9a34b08ecfcf7a9ad9078bf4d645ccfa1fac11c10b9060200160405180910390a150565b6102b03361020a565b6102286102bb610669565b6106f2565b600061023e6102cd6105b4565b5473ffffffffffffffffffffffffffffffffffffffff1690565b6102f76102f2610669565b610750565b60015460008054604051909190610318908990899089908790602001610c83565b604080517fffffffffffffffffffffffffffffffffffffffffffffffffffffffffffffffe081840301815291815281516020928301206000818152600290935291205490915060ff16156103a957878787856040517f7fbf25470000000000000000000000000000000000000000000000000000000081526004016103a09493929190610d0c565b60405180910390fd5b6103b5858584846107bc565b6103f357878787856040517f91ebfb310000000000000000000000000000000000000000000000000000000081526004016103a09493929190610d0c565b6000818152600260205260409081902080547fffffffffffffffffffffffffffffffffffffffffffffffffffffffffffffff001660011790555173ffffffffffffffffffffffffffffffffffffffff89169083907f6a4408e44c908d501056e1ef88baf30a72467f3a181544a67a30cb14c8e8059890610478908b908b908990610d4d565b60405180910390a361048b8888886107d4565b5050505050505050565b6104a933826104a26105b4565b919061088b565b50565b6000806101ff60017fca9d3e17f264b0f3984e2634e94adb37fa3e6a8103f06aeae6fa59e21c769f5e610d71565b60007c01000000000000000000000000000000000000000000000000000000007fffffffff0000000000000000000000000000000000000000000000000000000083160161052a575060006101ff565b7ffe003659000000000000000000000000000000000000000000000000000000007fffffffff0000000000000000000000000000000000000000000000000000000083160161057b575060016101ff565b507fffffffff00000000000000000000000000000000000000000000000000000000166000908152602091909152604090205460ff1690565b6000806101ff60017fc9ed16f33ab3a66c84bfd83099ccb2a8845871e2e1c1928f63797152f0fd54cd610d71565b815473ffffffffffffffffffffffffffffffffffffffff828116911614610665576040517f08c379a000000000000000000000000000000000000000000000000000000000815260206004820152601860248201527f4f776e6572736869703a206e6f7420746865206f776e6572000000000000000060448201526064016103a0565b5050565b6000806101ff60017f0186a05f63b1553398ad5ea3233c0ce68b8c9eecc47717f123c5c2b42fbd6d9f610d71565b6106a0816109b8565b80547fffffffffffffffffffffffffffffffffffffffffffffffffffffffffffffff001681556040517fa45f47fdea8a1efdd9029a5691c7f759c32b7c698632b563573e155625d1693390600090a150565b6106fb81610750565b80547fffffffffffffffffffffffffffffffffffffffffffffffffffffffffffffff001660011781556040517f9e87fac88ff661f02d44f95383c817fece4bce600a3dab7a54406878b965e75290600090a150565b805460ff16156104a9576040517f08c379a000000000000000000000000000000000000000000000000000000000815260206004820152600d60248201527f50617573653a207061757365640000000000000000000000000000000000000060448201526064016103a0565b6000826107ca868685610a23565b1495945050505050565b60006107e282840184610ae3565b6040517f40c10f1900000000000000000000000000000000000000000000000000000000815273ffffffffffffffffffffffffffffffffffffffff8681166004830152602482018390529192507f0000000000000000000000000000000000000000000000000000000000000000909116906340c10f1990604401600060405180830381600087803b15801561087757600080fd5b505af115801561048b573d6000803e3d6000fd5b825473ffffffffffffffffffffffffffffffffffffffff9081169083168114610910576040517f08c379a000000000000000000000000000000000000000000000000000000000815260206004820152601860248201527f4f776e6572736869703a206e6f7420746865206f776e6572000000000000000060448201526064016103a0565b8173ffffffffffffffffffffffffffffffffffffffff168173ffffffffffffffffffffffffffffffffffffffff16146109b25783547fffffffffffffffffffffffff00000000000000000000000000000000000000001673ffffffffffffffffffffffffffffffffffffffff8381169182178655604051908316907f8be0079c531659141344cd1fd0a4f28419497f9722a3daafe3b4186f6b6457e090600090a35b50505050565b805460ff166104a9576040517f08c379a000000000000000000000000000000000000000000000000000000000815260206004820152601160248201527f50617573653a206e6f742070617573656400000000000000000000000000000060448201526064016103a0565b600081815b84811015610a6657610a5282878784818110610a4657610a46610d84565b90506020020135610a6f565b915080610a5e81610c4b565b915050610a28565b50949350505050565b6000818310610a8b576000828152602084905260409020610a9a565b60008381526020839052604090205b9392505050565b600060208284031215610ab357600080fd5b81357fffffffff0000000000000000000000000000000000000000000000000000000081168114610a9a57600080fd5b600060208284031215610af557600080fd5b5035919050565b803573ffffffffffffffffffffffffffffffffffffffff81168114610b2057600080fd5b919050565b600080600080600060608688031215610b3d57600080fd5b610b4686610afc565b9450602086013567ffffffffffffffff80821115610b6357600080fd5b818801915088601f830112610b7757600080fd5b813581811115610b8657600080fd5b896020828501011115610b9857600080fd5b602083019650809550506040880135915080821115610bb657600080fd5b818801915088601f830112610bca57600080fd5b813581811115610bd957600080fd5b8960208260051b8501011115610bee57600080fd5b9699959850939650602001949392505050565b600060208284031215610c1357600080fd5b610a9a82610afc565b7f4e487b7100000000000000000000000000000000000000000000000000000000600052601160045260246000fd5b60007fffffffffffffffffffffffffffffffffffffffffffffffffffffffffffffffff8203610c7c57610c7c610c1c565b5060010190565b7fffffffffffffffffffffffffffffffffffffffff0000000000000000000000008560601b16815282846014830137601492019182015260340192915050565b8183528181602085013750600060208284010152600060207fffffffffffffffffffffffffffffffffffffffffffffffffffffffffffffffe0601f840116840101905092915050565b73ffffffffffffffffffffffffffffffffffffffff85168152606060208201526000610d3c606083018587610cc3565b905082604083015295945050505050565b604081526000610d61604083018587610cc3565b9050826020830152949350505050565b818103818111156101ff576101ff610c1c565b7f4e487b7100000000000000000000000000000000000000000000000000000000600052603260045260246000fdfea2646970667358221220d0d93996c24da7a18561e607c4a327b710b2273e0f28b8447edc88ad2131593c64736f6c63430008130033",
  "devdoc": {
    "errors": {
      "AlreadyClaimed(address,bytes,uint256)": [
        {
          "params": {
            "claimData": "The encoded claim data for the claim.",
            "nonce": "The nonce as when the claim was made.",
            "recipient": "The recipient of the claim."
          }
        }
      ],
      "InvalidProof(address,bytes,uint256)": [
        {
          "params": {
            "claimData": "The encoded claim data for the claim.",
            "nonce": "The nonce as when the claim was made.",
            "recipient": "The recipient of the claim."
          }
        }
      ]
    },
    "events": {
      "MerkleRootSet(bytes32)": {
        "params": {
          "root": "The new merkle root."
        }
      },
      "OwnershipTransferred(address,address)": {
        "params": {
          "newOwner": "the new contract owner.",
          "previousOwner": "the previous contract owner."
        }
      },
      "PayoutClaimed(bytes32,address,bytes,uint256)": {
        "params": {
          "claimData": "The encoded claim data for the claim.",
          "nonce": "The nonce as when the claim was made.",
          "recipient": "The recipient of the claim.",
          "root": "The merkle root on which the claim was made."
        }
      }
    },
    "kind": "dev",
    "methods": {
      "claimPayout(address,bytes,bytes32[])": {
        "details": "Reverts if the contract is paused.Reverts with {AlreadyClaimed} if this specific payout has already been claimed.Reverts with {InvalidProof} if the merkle proof cannot be verified.Emits a {PayoutClaimed} event.",
        "params": {
          "claimData": "Encoded claim data for `recipient`",
          "proof": "Merkle proof of the user based on the merkle root",
          "recipient": "Address of the user to claim the payout"
        }
      },
      "owner()": {
        "returns": {
          "_0": "The address of the contract owner."
        }
      },
      "pause()": {
        "details": "Reverts if the sender is not the contract owner.Reverts if the contract is paused.Emits a {Paused} event."
      },
      "paused()": {
        "returns": {
          "_0": "isPaused The paused state of the contract."
        }
      },
      "setMerkleRoot(bytes32)": {
        "details": "Reverts if not called by the contract owner.Reverts if the contract is not paused.Emits an {Unpaused} event.Emits a {MerkleRootSet} event.",
        "params": {
          "merkleRoot": "The merkle root to set."
        }
      },
      "supportsInterface(bytes4)": {
        "details": "Note: This function call must use less than 30 000 gas.",
        "params": {
          "interfaceId": "the interface identifier to test."
        },
        "returns": {
          "_0": "True if the interface is supported, false if `interfaceId` is `0xffffffff` or if the interface is not supported."
        }
      },
      "transferOwnership(address)": {
        "details": "Reverts if the sender is not the contract owner.Emits an {OwnershipTransferred} event if `newOwner` is different from the current contract owner.",
        "params": {
          "newOwner": "The address of the new contract owner. Using the zero address means renouncing ownership."
        }
      },
      "unpause()": {
        "details": "Reverts if the sender is not the contract owner.Reverts if the contract is not paused.Emits an {Unpaused} event."
      }
    },
    "version": 1
  },
  "userdoc": {
    "errors": {
      "AlreadyClaimed(address,bytes,uint256)": [
        {
          "notice": "Thrown when trying to claim the same leaf more than once."
        }
      ],
      "InvalidProof(address,bytes,uint256)": [
        {
          "notice": "Thrown when a proof cannot be verified."
        }
      ]
    },
    "events": {
      "MerkleRootSet(bytes32)": {
        "notice": "Emitted when a new merkle root is set."
      },
      "OwnershipTransferred(address,address)": {
        "notice": "Emitted when the contract ownership changes."
      },
      "Paused()": {
        "notice": "Emitted when the pause is triggered."
      },
      "PayoutClaimed(bytes32,address,bytes,uint256)": {
        "notice": "Emitted when a payout is claimed."
      },
      "Unpaused()": {
        "notice": "Emitted when the pause is lifted."
      }
    },
    "kind": "user",
    "methods": {
      "claimPayout(address,bytes,bytes32[])": {
        "notice": "Executes the payout for a given user (anyone can call this function)."
      },
      "owner()": {
        "notice": "Gets the address of the contract owner."
      },
      "pause()": {
        "notice": "Pauses the contract."
      },
      "paused()": {
        "notice": "Gets the paused state of the contract."
      },
      "setMerkleRoot(bytes32)": {
        "notice": "Sets the merkle root for a new claiming period and unpauses the contract."
      },
      "supportsInterface(bytes4)": {
        "notice": "Returns whether this contract implements a given interface."
      },
      "transferOwnership(address)": {
        "notice": "Sets the address of the new contract owner."
      },
      "unpause()": {
        "notice": "Unpauses the contract."
      }
    },
    "version": 1
  },
  "storageLayout": {
    "storage": [
      {
        "astId": 777,
        "contract": "contracts/payment/REVVMotorsportShardClaim.sol:REVVMotorsportShardClaim",
        "label": "root",
        "offset": 0,
        "slot": "0",
        "type": "t_bytes32"
      },
      {
        "astId": 779,
        "contract": "contracts/payment/REVVMotorsportShardClaim.sol:REVVMotorsportShardClaim",
        "label": "nonce",
        "offset": 0,
        "slot": "1",
        "type": "t_uint256"
      },
      {
        "astId": 783,
        "contract": "contracts/payment/REVVMotorsportShardClaim.sol:REVVMotorsportShardClaim",
        "label": "claimed",
        "offset": 0,
        "slot": "2",
        "type": "t_mapping(t_bytes32,t_bool)"
      }
    ],
    "types": {
      "t_bool": {
        "encoding": "inplace",
        "label": "bool",
        "numberOfBytes": "1"
      },
      "t_bytes32": {
        "encoding": "inplace",
        "label": "bytes32",
        "numberOfBytes": "32"
      },
      "t_mapping(t_bytes32,t_bool)": {
        "encoding": "mapping",
        "key": "t_bytes32",
        "label": "mapping(bytes32 => bool)",
        "numberOfBytes": "32",
        "value": "t_bool"
      },
      "t_uint256": {
        "encoding": "inplace",
        "label": "uint256",
        "numberOfBytes": "32"
      }
    }
  }
}