{
  "address": "0x56133a31F4cD01EDe8c6EE780071c021bd324aD2",
  "abi": [
    {
      "inputs": [],
      "stateMutability": "nonpayable",
      "type": "constructor"
    },
    {
      "inputs": [],
      "name": "DOMAIN_SEPARATOR",
      "outputs": [
        {
          "internalType": "bytes32",
          "name": "",
          "type": "bytes32"
        }
      ],
      "stateMutability": "view",
      "type": "function"
    },
    {
      "inputs": [
        {
          "internalType": "bytes",
          "name": "signature",
          "type": "bytes"
        },
        {
          "internalType": "enum UniversalForwarder.SignatureType",
          "name": "signatureType",
          "type": "uint8"
        },
        {
          "internalType": "address",
          "name": "target",
          "type": "address"
        },
        {
          "internalType": "bytes",
          "name": "data",
          "type": "bytes"
        }
      ],
      "name": "forward",
      "outputs": [],
      "stateMutability": "payable",
      "type": "function"
    },
    {
      "inputs": [
        {
          "internalType": "address",
          "name": "",
          "type": "address"
        }
      ],
      "name": "isTrustedForwarder",
      "outputs": [
        {
          "internalType": "bool",
          "name": "",
          "type": "bool"
        }
      ],
      "stateMutability": "pure",
      "type": "function"
    }
  ],
  "args": [],
  "numDeployments": 1,
  "bytecode": "0x60c060405234801561001057600080fd5b506000469050806080818152505061002d8161003a60201b60201c565b60a08181525050506100d8565b60007f8cad95687ba82c2ce50e74f7b754645e5117c3a5bec8151c0726d5857980a8667f3544bd4b4e112388a1c8d25798bd769c09279f7bc5bb598c30d847adf8857f758330604051602001808581526020018481526020018381526020018273ffffffffffffffffffffffffffffffffffffffff168152602001945050505050604051602081830303815290604052805190602001209050919050565b60805160a051610fa66100fb600039806108225250806107ed5250610fa66000f3fe6080604052600436106100345760003560e01c8063060e2221146100395780633644e51514610134578063572b6c051461015f575b600080fd5b6101326004803603608081101561004f57600080fd5b810190808035906020019064010000000081111561006c57600080fd5b82018360208201111561007e57600080fd5b803590602001918460018302840111640100000000831117156100a057600080fd5b9091929391929390803560ff169060200190929190803573ffffffffffffffffffffffffffffffffffffffff169060200190929190803590602001906401000000008111156100ee57600080fd5b82018360208201111561010057600080fd5b8035906020019184600183028401116401000000008311171561012257600080fd5b90919293919293905050506101c6565b005b34801561014057600080fd5b506101496102a0565b6040518082815260200191505060405180910390f35b34801561016b57600080fd5b506101ae6004803603602081101561018257600080fd5b81019080803573ffffffffffffffffffffffffffffffffffffffff1690602001909291905050506102af565b60405180821515815260200191505060405180910390f35b60006101d06102ba565b9050610222813389898080601f016020809104026020016040519081016040528093929190818152602001838380828437600081840152601f19601f82011690508083019250505050505050886102c9565b61029683838360405160200180848480828437808301925050508273ffffffffffffffffffffffffffffffffffffffff1660601b81526014019350505050604051602081830303815290604052348673ffffffffffffffffffffffffffffffffffffffff166107b69092919063ffffffff16565b5050505050505050565b60006102aa6107e5565b905090565b600060019050919050565b6000601436033560601c905090565b60006102d484610848565b90506002808111156102e257fe5b8260028111156102ee57fe5b1415610510576320c13b0b60e01b7bffffffffffffffffffffffffffffffffffffffffffffffffffffffff19168573ffffffffffffffffffffffffffffffffffffffff166320c13b0b83866040518363ffffffff1660e01b8152600401808060200180602001838103835285818151815260200191508051906020019080838360005b8381101561038c578082015181840152602081019050610371565b50505050905090810190601f1680156103b95780820380516001836020036101000a031916815260200191505b50838103825284818151815260200191508051906020019080838360005b838110156103f25780820151818401526020810190506103d7565b50505050905090810190601f16801561041f5780820380516001836020036101000a031916815260200191505b5094505050505060206040518083038186803b15801561043e57600080fd5b505afa158015610452573d6000803e3d6000fd5b505050506040513d602081101561046857600080fd5b81019080805190602001909291905050507bffffffffffffffffffffffffffffffffffffffffffffffffffffffff19161461050b576040517f08c379a00000000000000000000000000000000000000000000000000000000081526004018080602001828103825260168152602001807f5349474e41545552455f313237315f494e56414c49440000000000000000000081525060200191505060405180910390fd5b6107af565b6001600281111561051d57fe5b82600281111561052957fe5b14156106ed57631626ba7e60e01b7bffffffffffffffffffffffffffffffffffffffffffffffffffffffff19168573ffffffffffffffffffffffffffffffffffffffff16631626ba7e8380519060200120866040518363ffffffff1660e01b81526004018083815260200180602001828103825283818151815260200191508051906020019080838360005b838110156105d05780820151818401526020810190506105b5565b50505050905090810190601f1680156105fd5780820380516001836020036101000a031916815260200191505b50935050505060206040518083038186803b15801561061b57600080fd5b505afa15801561062f573d6000803e3d6000fd5b505050506040513d602081101561064557600080fd5b81019080805190602001909291905050507bffffffffffffffffffffffffffffffffffffffffffffffffffffffff1916146106e8576040517f08c379a00000000000000000000000000000000000000000000000000000000081526004018080602001828103825260168152602001807f5349474e41545552455f313635345f494e56414c49440000000000000000000081525060200191505060405180910390fd5b6107ae565b600061070984838051906020012061090c90919063ffffffff16565b90508073ffffffffffffffffffffffffffffffffffffffff168673ffffffffffffffffffffffffffffffffffffffff16146107ac576040517f08c379a00000000000000000000000000000000000000000000000000000000081526004018080602001828103825260168152602001807f5349474e41545552455f57524f4e475f5349474e45520000000000000000000081525060200191505060405180910390fd5b505b5b5050505050565b60606107dc848484604051806060016040528060298152602001610f48602991396109b9565b90509392505050565b6000804690507f000000000000000000000000000000000000000000000000000000000000000081146108205761081b81610b61565b610842565b7f00000000000000000000000000000000000000000000000000000000000000005b91505090565b60606108526107e5565b7f29d8e60834ee7989c6c60ff9e88b28b7374ac20486dfbb18f0afd054ef6a221183604051602001808381526020018273ffffffffffffffffffffffffffffffffffffffff168152602001925050506040516020818303038152906040528051906020012060405160200180807f1901000000000000000000000000000000000000000000000000000000000000815250600201838152602001828152602001925050506040516020818303038152906040529050919050565b60006041825114610985576040517f08c379a000000000000000000000000000000000000000000000000000000000815260040180806020018281038252601f8152602001807f45434453413a20696e76616c6964207369676e6174757265206c656e6774680081525060200191505060405180910390fd5b60008060006020850151925060408501519150606085015160001a90506109ae86828585610bff565b935050505092915050565b606082471015610a14576040517f08c379a0000000000000000000000000000000000000000000000000000000008152600401808060200182810382526026815260200180610f006026913960400191505060405180910390fd5b610a1d85610dfe565b610a8f576040517f08c379a000000000000000000000000000000000000000000000000000000000815260040180806020018281038252601d8152602001807f416464726573733a2063616c6c20746f206e6f6e2d636f6e747261637400000081525060200191505060405180910390fd5b6000808673ffffffffffffffffffffffffffffffffffffffff1685876040518082805190602001908083835b60208310610ade5780518252602082019150602081019050602083039250610abb565b6001836020036101000a03801982511681845116808217855250505050505090500191505060006040518083038185875af1925050503d8060008114610b40576040519150601f19603f3d011682016040523d82523d6000602084013e610b45565b606091505b5091509150610b55828286610e11565b92505050949350505050565b60007f8cad95687ba82c2ce50e74f7b754645e5117c3a5bec8151c0726d5857980a8667f3544bd4b4e112388a1c8d25798bd769c09279f7bc5bb598c30d847adf8857f758330604051602001808581526020018481526020018381526020018273ffffffffffffffffffffffffffffffffffffffff168152602001945050505050604051602081830303815290604052805190602001209050919050565b60007f7fffffffffffffffffffffffffffffff5d576e7357a4501ddfe92f46681b20a08260001c1115610c7d576040517f08c379a0000000000000000000000000000000000000000000000000000000008152600401808060200182810382526022815260200180610ede6022913960400191505060405180910390fd5b601b8460ff161480610c925750601c8460ff16145b610ce7576040517f08c379a0000000000000000000000000000000000000000000000000000000008152600401808060200182810382526022815260200180610f266022913960400191505060405180910390fd5b600060018686868660405160008152602001604052604051808581526020018460ff1681526020018381526020018281526020019450505050506020604051602081039080840390855afa158015610d43573d6000803e3d6000fd5b505050602060405103519050600073ffffffffffffffffffffffffffffffffffffffff168173ffffffffffffffffffffffffffffffffffffffff161415610df2576040517f08c379a00000000000000000000000000000000000000000000000000000000081526004018080602001828103825260188152602001807f45434453413a20696e76616c6964207369676e6174757265000000000000000081525060200191505060405180910390fd5b80915050949350505050565b600080823b905060008111915050919050565b60608315610e2157829050610ed6565b600083511115610e345782518084602001fd5b816040517f08c379a00000000000000000000000000000000000000000000000000000000081526004018080602001828103825283818151815260200191508051906020019080838360005b83811015610e9b578082015181840152602081019050610e80565b50505050905090810190601f168015610ec85780820380516001836020036101000a031916815260200191505b509250505060405180910390fd5b939250505056fe45434453413a20696e76616c6964207369676e6174757265202773272076616c7565416464726573733a20696e73756666696369656e742062616c616e636520666f722063616c6c45434453413a20696e76616c6964207369676e6174757265202776272076616c7565416464726573733a206c6f772d6c6576656c2063616c6c20776974682076616c7565206661696c6564a264697066735822122066b1626d8672ac1584699b96aa4860bdd1cdcd82af6969b04dfb419a4bfde84064736f6c63430007060033",
  "devdoc": {
    "kind": "dev",
    "methods": {
      "DOMAIN_SEPARATOR()": {
        "details": "Return the DOMAIN_SEPARATOR."
      },
      "forward(bytes,uint8,address,bytes)": {
        "params": {
          "data": "the content of the call (the signer address will be appended to it).",
          "signature": "signature by signer for approving forwarder.",
          "target": "destination of the call (that will receive the meta transaction)."
        }
      }
    },
    "version": 1
  },
  "userdoc": {
    "kind": "user",
    "methods": {
      "forward(bytes,uint8,address,bytes)": {
        "notice": "Forward the meta transaction by first checking signature if forwarder is approved : no storage involved, approving is forever."
      },
      "isTrustedForwarder(address)": {
        "notice": "The UniversalForwarder supports every EIP-2771 compliant forwarder."
      }
    },
    "notice": "Universal Meta Transaction Forwarder It does not perform any extra logic apart from checking if the caller (metatx forwarder) has been approved via signature. Note that forwarder approval are forever. This is to remove the need to read storage. Signature need to be given each time. The overhead (on top of the specific metatx forwarder) is thus just an extra contract load and call + signature check.",
    "version": 1
  },
  "storageLayout": {
    "storage": [],
    "types": null
  }
}